{
  "contractName": "MappingStructsExample",
  "abi": [
    {
      "constant": true,
      "inputs": [
        {
          "internalType": "address",
          "name": "",
          "type": "address"
        }
      ],
      "name": "balanceReceived",
      "outputs": [
        {
          "internalType": "uint256",
          "name": "",
          "type": "uint256"
        }
      ],
      "payable": false,
      "stateMutability": "view",
      "type": "function"
    },
    {
      "constant": true,
      "inputs": [],
      "name": "getBalance",
      "outputs": [
        {
          "internalType": "uint256",
          "name": "",
          "type": "uint256"
        }
      ],
      "payable": false,
      "stateMutability": "view",
      "type": "function"
    },
    {
      "constant": false,
      "inputs": [],
      "name": "sendMoney",
      "outputs": [],
      "payable": true,
      "stateMutability": "payable",
      "type": "function"
    },
    {
      "constant": false,
      "inputs": [
        {
          "internalType": "address payable",
          "name": "_to",
          "type": "address"
        }
      ],
      "name": "withdrawAllMoney",
      "outputs": [],
      "payable": false,
      "stateMutability": "nonpayable",
      "type": "function"
    }
  ],
  "bytecode": "0x608060405234801561001057600080fd5b506102a4806100206000396000f3fe60806040526004361061003f5760003560e01c80630adec93c1461004457806312065fe014610095578063cbedbf5a146100c0578063d18a42e1146100ca575b600080fd5b34801561005057600080fd5b506100936004803603602081101561006757600080fd5b81019080803573ffffffffffffffffffffffffffffffffffffffff16906020019092919050505061012f565b005b3480156100a157600080fd5b506100aa610201565b6040518082815260200191505060405180910390f35b6100c8610209565b005b3480156100d657600080fd5b50610119600480360360208110156100ed57600080fd5b81019080803573ffffffffffffffffffffffffffffffffffffffff169060200190929190505050610257565b6040518082815260200191505060405180910390f35b60008060003373ffffffffffffffffffffffffffffffffffffffff1673ffffffffffffffffffffffffffffffffffffffff16815260200190815260200160002054905060008060003373ffffffffffffffffffffffffffffffffffffffff1673ffffffffffffffffffffffffffffffffffffffff168152602001908152602001600020819055508173ffffffffffffffffffffffffffffffffffffffff166108fc829081150290604051600060405180830381858888f193505050501580156101fc573d6000803e3d6000fd5b505050565b600047905090565b346000803373ffffffffffffffffffffffffffffffffffffffff1673ffffffffffffffffffffffffffffffffffffffff16815260200190815260200160002060008282540192505081905550565b6000602052806000526040600020600091509050548156fea265627a7a723158202784c88f749ebd280e2c0022b91687f2eb8ae84b804513ee0ec9a13c4465736964736f6c63430005100032",
  "source": "pragma solidity >=0.4.22 <0.8.0;\n\ncontract MappingStructsExample {\n\n    mapping(address => uint) public balanceReceived;\n    \n    function getBalance() public view returns(uint) {\n        return address(this).balance;\n    }\n\n    function sendMoney() public payable {\n        balanceReceived[msg.sender] += msg.value;\n    }\n\n    function withdrawAllMoney(address payable _to) public {\n        uint balanceToSend = balanceReceived[msg.sender];\n        balanceReceived[msg.sender] = 0;\n        _to.transfer(balanceToSend);\n    }\n}",
  "sourcePath": "/home/carla/Proyectos/eth/udemy/contracts/MappingStructsExample.sol",
  "compiler": {
    "name": "solc",
    "version": "0.5.16+commit.9c3226ce.Emscripten.clang"
  },
  "schemaVersion": "3.2.3",
  "updatedAt": "2020-10-28T20:45:03.273Z",
  "networkType": "ethereum",
  "devdoc": {
    "methods": {}
  },
  "userdoc": {
    "methods": {}
  }
}